:1000000045C000004BC0000049C0000047C00000D0
:1000100045C0000043C0000041C000003FC00000D8
:100020003DC000003BC0000039C0000037C00000E8
:1000300035C0000033C0000031C000002FC00000F8
:100040002DC000002BC0000029C0000027C0000008
:1000500025C0000023C0000021C000001FC0000018
:100060001DC000001BC0000019C0000017C0000028
:1000700015C0000013C0000011C000000FC0000038
:100080000DC000000BC0000009C0000011241FBEFD
:10009000CFEFD0E1DEBFCDBF7BD0B9C0B1CF982FBD
:1000A000907F95BBAB9AE9EFF0E03197F1F700C094
:1000B000000094E095BBF0E18F9FC001112485BB47
:1000C000AB9A89EF90E00197F1F700C0000015BAF4
:1000D00008958FEF84BB82E0E2DF88E2E0DF8CE00E
:1000E000DEDF86E0DCDF80E8DACF0895982F907FAE
:1000F00095BB95B39C6095BBE9EFF0E03197F1F7C4
:1001000000C0000094E095BBF0E18F9FC001112476
:1001100085BB85B38C6085BB89EF90E00197F1F7D3
:1001200000C0000015BA0895EF92FF920F931F933D
:10013000CF93DF938C0180E8B2DF7801C0E0D0E09C
:1001400005C0F70181917F01D1DF2196F80101906F
:100150000020E9F73197E01BF10BCE17DF0788F39A
:10016000DF91CF911F910F91FF90EF900895181696
:1001700019066CF420E030E0EFECF7E03197F1F78E
:1001800000C000002F5F3F4F28173907A9F70895D7
:10019000CF93DF93CDB7DEB760970FB6F894DEBF8D
:1001A0000FBECDBF96DF10D018D084E690E0DFDF21
:1001B00010E286E990E0DBDFCE01019616D01983CC
:1001C000CE010196B1DFF5CF109290008FEC89B986
:1001D00086E0809395001AB808958AB188618AB93B
:1001E00008955F9BFECF8CB108950F931F93CF931B
:1001F000DF93EC01F6DF8A3011F08993FBCF188290
:1002000080E090E0DF91CF911F910F910895F894D5
:02021000FFCF1E
:00000001FF
