S013000047686574746F476F6368692E73726563BC
S113000056C0000071C000006FC000006DC0000049
S11300106BC000007BC1000094C100009CC10000C3
S113002063C0000061C00000A0C100005DC000000A
S11300305BC0000059C0000057C0000055C000005C
S113004053C0000051C000004FC000004DC000006C
S11300504BC0000049C0000047C0000045C000007C
S113006043C0000041C000003FC000003DC000008C
S11300703BC0000039C0000037C0000035C000009C
S113008033C0000031C000002FC00000E500E500CF
S1130090EE00F7000001090112011B0124012D01EA
S11300A036013F01480151015A0163016C011124D9
S11300B01FBECFEFD0E1DEBFCDBF11E0A0E0B1E0C5
S11300C0E2E2F4E000E00BBF02C007900D92A0331F
S11300D0B107D9F721E0A0E3B1E001C01D92A83334
S11300E0B207E1F770D19BC18BCF1092710080E20F
S11300F080937000089584EA80937400E4E7F0E04C
S113010080818823ECF708958093730084E88093BA
S11301107400E4E7F0E080818823ECF70895CF933E
S1130120C82FE9DF80EEF0DF8C2FEEDF84E98093C7
S11301307400CF910895CF93DF93DDDF80EEE4DF89
S1130140C8E0D0E080E0E0DF80E0DEDF2197D1F797
S113015084E980937400DF91CF910895EF92FF9228
S11301600F931F93CF93DF937C0180913001909183
S11301703101E816F90699F0DEDFBDDF80EEC4DF59
S1130180E7018701005F1F4F80E0BEDF8881229670
S1130190BBDFC017D107C1F784E980937400F092E4
S11301A03101E0923001DF91CF911F910F91FF90C7
S11301B0EF900895E0913601F0913701E131F105B6
S11301C008F093C0EA5BFF4F21C180E091E0909377
S11301D033018093320180EEA2CF089580E091E054
S11301E0909333018093320181EE99CF089580E09A
S11301F091E0909333018093320182EE90CF089581
S113020080E091E0909333018093320183EE87CFB5
S1130210089580E191E0909333018093320184EE5C
S11302207ECF089580E191E0909333018093320171
S113023085EE75CF089580E191E09093330180932A
S1130240320186EE6CCF089580E191E09093330102
S11302508093320187EE63CF089580E191E090931B
S113026033018093320188EE5ACF089580E291E001
S1130270909333018093320189EE51CF089580E247
S113028091E090933301809332018AEE48CF089530
S113029080E291E090933301809332018BEE3FCF63
S11302A0089580E291E090933301809332018CEEC3
S11302B036CF089580E291E0909333018093320128
S11302C08DEE2DCF089580E291E0909333018093D9
S11302D032018EEE24CF089580E291E090933301B1
S11302E0809332018FEE1BCF0895E131F1053CF08C
S11302F080E190E090933701809336010895FF23C5
S113030024F4109237011092360108951F920F922F
S11303100FB60F9211248F939F9380913601909181
S11303203701019690933701809336019BB380E4A3
S113033089278BBB9F918F910F900FBE0F901F90B9
S113034018951F920F920FB60F9211240F900FBEA3
S11303500F901F9018951F920F920FB60F921124B1
S11303600F900FBE0F901F9018951F920F920FB60B
S11303700F9211248F939F9314BC80913401909118
S1130380350105976CF08091360190913701019702
S11303909093370180933601109235011092340105
S11303A08BB380588BBB80913401909135010196B9
S11303B090933501809334019F918F910F900FBEDC
S11303C00F901F9018958FEF8ABB8AB78F638ABFEF
S11303D089B7806789BF14BC87B7806487BF85E00D
S11303E085BD83DE81E29BDE80EA99DE8AEE97DEBC
S11303F081E895DE1092370110923601789480914D
S1130400320190913301AADED5DEF9CFEE0FFF1F42
S11304100024001C0BBE0790F691E02D0994F8947B
S1050420FFCF08
S11304221E002100D200C000CC00D20021001E0018
S11304321E002100D200C000DE00C00021001E0008
S11304421E002100D200C000D200CC0021001E00F8
S9030000FC
