S00A000042322E73726563A6
S113000045C0000012C100009BC00000E7C0000012
S1130010BEC0000058C0000056C0000054C000001C
S113002052C0000050C000004EC000004CC0000090
S11300304AC0000048C0000046C0000044C00000A0
S113004042C0000040C000003EC000003CC00000B0
S11300503AC0000038C0000036C0000034C00000C0
S113006032C0000030C000002EC000002CC00000D0
S11300702AC0000028C0000026C0000024C00000E0
S113008022C0000020C000001EC0000011241FBEBA
S1130090CFEFD0E1DEBFCDBF11E0A0E0B1E0E4E9F5
S11300A0F2E000E00BBF02C007900D92AC30B10744
S11300B0D9F721E0ACE0B1E001C01D92AE30B20747
S11300C0E1F7DAD0E5C09CCF181619066CF420E0ED
S11300D030E0E9EFF0E03197F1F700C000002F5F66
S11300E03F4F28173907A9F7089580910C01909183
S11300F00D0185309105F8F4FC01EE0FFF1F8E0F02
S11301009F1FFC01E050FF4F808182BB80910C0156
S113011090910D01019690930D0180930C01FC01C7
S1130120EE0FFF1F8E0F9F1FFC01E050FF4F8181D8
S11301309281CACF089510920D0110920C01089576
S11301401F920F920FB60F9211240BB60F922F939A
S11301503F934F935F936F937F938F939F93AF934B
S1130160BF93EF93FF93C1DFFF91EF91BF91AF91E5
S11301709F918F917F916F915F914F913F912F91BB
S11301800F900BBE0F900FBE0F901F9018951F92EB
S11301900F920FB60F9211240BB60F922F933F9329
S11301A04F935F936F937F938F939F93AF93BF937B
S11301B0EF93FF939ADFFF91EF91BF91AF919F91DE
S11301C08F917F916F915F914F913F912F910F90FC
S11301D00BBE0F900FBE0F901F9018951F920F9299
S11301E00FB60F9211240BB60F922F933F934F9398
S11301F05F936F937F938F939F93AF93BF93EF938B
S1130200FF9373DFFF91EF91BF91AF919F918F9116
S11302107F916F915F914F913F912F910F900BBE02
S11302200F900FBE0F901F9018951F920F920FB64C
S11302300F9211240BB60F922F933F934F935F931A
S11302406F937F938F939F93AF93BF93EF93FF939A
S11302504CDFFF91EF91BF91AF919F918F917F916F
S11302606F915F914F913F912F910F900BBE0F9023
S11302700FBE0F901F90189580EF81BBEAE6F0E067
S113028080818A6A808389B78F6089BF7894FFCF21
S1070290F894FFCF0C
S10F029490E80360E80350E80390E803DE
S9030000FC
