S00B00004232632E7372656342
S113000045C0000053C0000051C000004FC00000B4
S11300104DC000004BC0000049C0000047C00000B4
S113002045C0000043C0000041C000003FC00000C4
S11300303DC000003BC0000039C0000037C00000D4
S113004035C0000033C0000031C000002FC00000E4
S11300502DC000002BC0000029C0000027C00000F4
S113006025C0000023C0000021C000001FC0000004
S11300701DC000001BC0000019C0000017C0000014
S113008015C0000013C0000011C0000011241FBEE1
S1130090CFEFD0E1DEBFCDBF21E0A0E0B1E001C0F1
S11300A01D92A030B207E1F722D036C0A9CF1816AE
S11300B019066CF420E030E0E9EFF0E03197F1F755
S11300C000C000002F5F3F4F28173907A9F7089594
S11300D08FEF90E09BBD8ABD99BD88BD9093790058
S11300E08093780089EA8FBD8BE08EBD08958FEFF1
S11300F087BBEEDF84E690E0DADFCFEFD0E008E7FD
S113010010E019BC18BCDBBDCABDF801D183C083A3
S10F011084E690E0CCDFF5CFF894FFCF3C
S9030000FC
