:1000000045C0000053C0000051C000004FC00000B8
:100010004DC000004BC0000049C0000047C00000B8
:1000200045C0000043C0000041C000003FC00000C8
:100030003DC000003BC0000039C0000037C00000D8
:1000400035C0000033C0000031C000002FC00000E8
:100050002DC000002BC0000029C0000027C00000F8
:1000600025C0000023C0000021C000001FC0000008
:100070001DC000001BC0000019C0000017C0000018
:1000800015C0000013C0000011C0000011241FBEE5
:10009000CFEFD0E1DEBFCDBF21E0A0E0B1E001C0F5
:1000A0001D92A030B207E1F722D09BC0A9CF18164D
:1000B00019066CF420E030E0E9EFF0E03197F1F759
:1000C00000C000002F5F3F4F28173907A9F7089598
:1000D0008FEF90E09BBD8ABD99BD88BD909379005C
:1000E0008093780089EA8FBD8BE08EBD08958FEFF5
:1000F00087BBEEDF84E690E0DADF19BC18BC8FEF37
:1001000090E090937900809378009BBD8ABD80E158
:1001100097E2CDDFCC24CA94D12C08E710E0E12C83
:10012000F12CCC2DDD2DCE019927F8019183808310
:1001300085E090E0BCDF2197B0F780E197E2B7DF80
:10014000CE2DDF2DCE01992799BD88BD85E090E0A9
:10015000AEDF2196C115F1E0DF07A1F780E197E25C
:10016000A6DFCC2DDD2DCE0199279BBD8ABD85E074
:1001700090E09DDF2197B8F780E197E298DFCE2DE0
:10018000DF2DCE019927F8019183808385E090E0EF
:100190008EDF2196C115F1E0DF0799F780E197E244
:1001A00086DFCC2DDD2DCE01992799BD88BD85E058
:1001B00090E07DDF2197B8F780E197E278DFCE2DE0
:1001C000DF2DCE0199279BBD8ABD85E090E06FDFD2
:1001D0002196C115F1E0DF07A1F780E197E267DF23
:0601E000A0CFF894FFCF50
:00000001FF
