S00A000041342E73726563A5
S113000045C0000058C0000056C0000054C00000A5
S113001052C0000050C000004EC000004CC00000A0
S11300204AC0000048C0000046C0000044C00000B0
S113003042C0000040C000003EC000003CC00000C0
S11300403AC0000038C0000036C0000034C00000D0
S113005032C0000030C000002EC000002CC00000E0
S11300602AC0000028C0000026C0000024C00000F0
S113007022C0000020C000001EC000001CC0000000
S11300801AC0000018C0000016C0000011241FBED2
S1130090CFEFD0E1DEBFCDBF11E0A0E0B1E0ECEDE9
S11300A0F1E000E00BBF02C007900D92AE30B10743
S11300B0D9F763D091C0A4CF982F907F95BBAB9A0A
S11300C0E9EFF0E03197F1F700C0000094E095BB50
S11300D0F0E18F9FC001112485BBAB9A89EF90E0BA
S11300E00197F1F700C0000015BA089588E1E4CF44
S11300F008958CE1E1CF08958FEF84BB82E0DCDFCB
S113010088E2DADF8CE0D8DF86E0D6DF80E8D4CF7F
S11301100895CF93DF93DC01EC0140E050E064E00C
S11301201FC02991822F807F85BB95B39C6095BBAE
S113013089EF90E00197F1F700C0000065BB90E102
S1130140299F9001112425BB95B39C6095BB89EF31
S113015090E00197F1F700C0000015BA4F5F5F4FC0
S1130160FD0101900020E9F73197EA1BFB0B4E17C4
S11301705F07B8F2DF91CF910895BEDF80E091E090
S1130180C8DF83E294EF0197F1F700C00000B1DF0C
S113019083E294EF0197F1F700C00000AADF83E245
S11301A094EF0197F1F700C00000A3DF83E294EF1E
S11301B00197F1F700C0000099DF83E294EF019703
S11301C0F1F700C0000092DF83E294EF0197F1F7AA
S10F01D000C000008BDFD5CFF894FFCFF7
S11101DC48656C6C6F2C20776F726C640000A9
S9030000FC
