S00A000042332E73726563A5
S113000045C0000053C0000051C000004FC00000B4
S11300104DC000004BC0000049C0000047C00000B4
S113002045C0000043C0000042C000003FC00000C3
S11300303DC000003BC0000039C0000037C00000D4
S113004035C0000033C0000031C000002FC00000E4
S11300502DC000002BC0000029C0000027C00000F4
S113006025C0000023C0000021C000001FC0000004
S11300701DC000001BC0000019C0000017C0000014
S113008015C0000013C0000011C0000011241FBEE1
S1130090CFEFD0E1DEBFCDBF21E0A0E0B1E001C0F1
S11300A01D92A230B207E1F733D03CC0A9CF1F9212
S11300B00F920FB60F9211248F939F9382B380589F
S11300C082BB8091000190910101892B39F08CE36E
S11300D084BD109201011092000108C08AE884BD19
S11300E081E090E090930101809300019F918F91B2
S11300F00F900FBE0F901F9018951092010110924F
S1130100000114BC87B7806487BF85E085BD08956E
S113011080E881BB8FEF8ABB87BBEFDF8FB7806836
S10B01208FBFFFCFF894FFCF5D
S9030000FC
