:1000000086C0000099C0000097C0000095C00000A5
:1000100093C0000091C000008FC000008DC00000A0
:100020008BC0000089C0000087C0000085C00000B0
:1000300083C0000081C000007FC000007DC00000C0
:100040007BC0000079C0000077C0000075C00000D0
:1000500073C0000071C000006FC000006DC00000E0
:100060006BC0000069C0000067C0000065C00000F0
:1000700063C0000061C000005FC000005DC0000000
:100080005BC0000059C0000057C000000763423643
:10009000B79BD8A71A39685618AEBAAB558C1D3C19
:1000A000B7CC5763BD6DEDFD753EF6177231BF00DD
:1000B0000000803F08000000BE922449123EABAA17
:1000C000AA2ABECDCCCC4C3E00000080BEABAAAA72
:1000D000AA3E00000000BF000000803F00000000BA
:1000E00000084178D3BB4387D1133D190E3CC3BDF3
:1000F0004282AD2B3E68EC8276BED98FE1A93E4CA0
:1001000080EFFFBE01C4FF7F3F000000000011240C
:100110001FBECFEFD0E1DEBFCDBF11E0A0E0B1E068
:10012000ECE2F0E100E00BBF02C007900D92A232BA
:10013000B107D9F7F0D078C763CF982F907F95BBE0
:10014000AB9AE9EFF0E03197F1F700C0000094E0DE
:1001500095BBF0E18F9FC001112485BBAB9A89EF5D
:1001600090E00197F1F700C0000015BA08958FEFF5
:1001700084BB82E0E2DF88E2E0DF8CE0DEDF86E065
:10018000DCDF80E8DACF0895CF93DF93EC0180E8DD
:10019000D4DFDE0140E050E064E01FC02D91822FEB
:1001A000807F85BB85B38C6085BB89EF90E001972C
:1001B000F1F700C0000065BB90E1299F9001112478
:1001C00025BB95B39C6095BB89EF90E00197F1F753
:1001D00000C0000015BA4F5F5F4FFE010190002084
:1001E000E9F73197EC1BFD0B4E175F07B8F2DF9173
:1001F000CF9108950F931F93CF93DF93181619068D
:100200004CF48C01C0E0D0E084E197DF2196C01768
:10021000D107D1F7DF91CF911F910F910895181653
:1002200019066CF420E030E0E9EFF0E03197F1F7E7
:1002300000C000002F5F3F4F28173907A9F7089526
:100240002F923F924F925F926F927F928F929F92E6
:10025000AF92BF92CF92DF92EF92FF920F931F93D4
:10026000CF93DF937C01892B09F43AC0C12CD12CA8
:10027000C0E0D0E00F2EFAE02F2E312CF02DC70178
:10028000B101E2D37B018C01B6010D2C000C880B6F
:10029000990B1ED19B01AC0160E070E080E090E41E
:1002A00006D24B015C01BE01DD0F880B990B10D10A
:1002B0002B013C01B801110F880B990B09D1A50145
:1002C000940192D19B01AC01C301B2016AD0CDD09F
:1002D000EB018FEFC81AD80AE114F10481F602C0CD
:1002E000C0E0D0E0CE01DF91CF911F910F91FF9040
:1002F000EF90DF90CF90BF90AF909F908F907F90C6
:100300006F905F904F903F902F90089581E487B950
:1003100086EE86B90895CF93DF93CDB7DEB7A89761
:100320000FB6F894DEBF0FBECDBF109261008FEF05
:100330008ABB87BBEBDF1BDF81E090E05BDF0F2E2A
:10034000F0E0EF2EF1E0FF2EF02D8E010F5F1F4F3A
:100350000F2EF1E1DF2EF02D84B190E071DF9F933D
:100360008F93FF92EF921F930F9395D3C8010CDFE9
:1003700084B188BB85B18BBB8AEF90E050DFE0E1B0
:10038000F1E0D8018D2D01900D928A95E1F7C80119
:10039000FBDE0F900F900F900F900F900F90DCCF1F
:1003A0005058BB27AA270ED0E5C0D6D030F0DBD0FE
:1003B00020F031F49F3F11F41EF4CBC00EF4E09511
:1003C000E7FBC1C0E92FE7D080F3BA1762077307D4
:1003D0008407950718F071F49EF5FFC00EF4E095C0
:1003E0000B2EBA2FA02D0B01B90190010C01CA01EF
:1003F000A0011124FF27591B99F0593F50F4503E9A
:1004000068F11A16F040A22F232F342F4427585F8B
:10041000F3CF469537952795A795F0405395C9F7A3
:100420007EF41F16BA0B620B730B840BBAF091505B
:10043000A1F0FF0FBB1F661F771F881FC2F70EC0FA
:10044000BA0F621F731F841F48F4879577956795CD
:10045000B795F7959E3F08F0B3CF9395880F08F0B6
:100460009927EE0F97958795089504D06894B11158
:10047000B5C0089598D088F09F5790F0B92F99276C
:10048000B751A0F0D1F0660F771F881F991F1AF09F
:10049000BA95C9F712C0B13081F09FD0B1E008958C
:1004A0009CC0672F782F8827B85F39F0B93FCCF30D
:1004B000869577956795B395D9F73EF49095809595
:1004C000709561957F4F8F4F9F4F0895E89409C0B5
:1004D00097FB3EF490958095709561957F4F8F4F77
:1004E0009F4F9923A9F0F92F96E9BB279395F6958D
:1004F000879577956795B795F111F8CFFAF4BB0F0B
:1005000011F460FF1BC06F5F7F4F8F4F9F4F16C06E
:10051000882311F096E911C0772321F09EE8872FF8
:10052000762F05C0662371F096E8862F70E060E0B4
:100530002AF09A95660F771F881FDAF7880F96952D
:10054000879597F9089597F99F6780E870E060E0D4
:1005500008959FEF80EC089500240A94161617065C
:1005600018060906089500240A94121613061406A4
:1005700005060895092E0394000C11F4882352F007
:10058000BB0F40F4BF2B11F460FF04C06F5F7F4FBF
:100590008F4F9F4F089557FD9058440F551F59F0A6
:1005A0005F3F71F04795880F97FB991F61F09F3F60
:1005B00079F087950895121613061406551FF2CF89
:1005C0004695F1DF08C0161617061806991FF1CFD9
:1005D00086957105610508940895E894BB27662700
:1005E0007727CB0197F908950BD0C4CFB5DF28F05A
:1005F000BADF18F0952309F0A6CFABCF1124EECFC8
:10060000CADFA0F3959FD1F3950F50E0551F629F6D
:10061000F001729FBB27F00DB11D639FAA27F00D5B
:10062000B11DAA1F649F6627B00DA11D661F829F82
:100630002227B00DA11D621F739FB00DA11D621F67
:10064000839FA00D611D221F749F3327A00D611D84
:10065000231F849F600D211D822F762F6A2F112466
:100660009F5750408AF0E1F088234AF0EE0FFF1FB9
:10067000BB1F661F771F881F91505040A9F79E3FF0
:10068000510570F060CFAACF5F3FECF3983EDCF3EA
:10069000869577956795B795F795E7959F5FC1F72D
:1006A000FE2B880F911D9695879597F90895FA016D
:1006B000EE0FFF1F30962105310599F16115710587
:1006C00061F48038BFE39B0749F168949038810555
:1006D00061F08038BFEF9B0741F0992342F5FF3F5F
:1006E000E1053105210511F1E8940894E795D90158
:1006F000AA2329F4AB2FBE2FF85FD0F310C0FF5F01
:1007000070F4A695E0F7F73950F019F0FF3A38F495
:100710009F779F930CD00F9007FC905808953EF060
:1007200018CF60E070E080E89FE308954FE79F777F
:100730005F934F933F932F939ED02F913F914F9173
:100740005F9152DF05C019F40EF0FDCE46CF01CF08
:100750002ADFC8F39638C0F707F80F92E8942BE326
:100760003AEA48EB5FE74EDF0F920F920F924DB7D8
:100770005EB70F92C0D0ECE8F0E016D04F915F91D9
:10078000EF91FF91E595EE1FFF1F49F0FE57E068DE
:100790004427EE0F441FFA95E1F74195550B32D0EF
:1007A0000F9007FE26C00895DF93CF931F930F93FA
:1007B000FF92EF92DF927B018C01689405C0DA2EE4
:1007C000EF011EDFFE01E894A59125913591459139
:1007D0005591AEF3EF01F6DDFE019701A801DA9421
:1007E00079F7DF90EF90FF900F911F91CF91DF91FC
:1007F00008959B01AC0160E070E080E89FE3AEC02B
:10080000A2CE14C1D0DEE8F39923D9F3940F511D81
:10081000BBF39150504094F059F0882332F0660FAA
:10082000771F881F91505040C1F79E3F510544F7F4
:10083000880F911D9695879597F908955F3FACF0C5
:10084000983E9CF0BB27869577956795B79508F4F9
:10085000B1609395C1F7BB0F58F711F460FFE8CF73
:100860006F5F7F4F8F4F9F4FE3CFB8CE0EF0DEC04C
:1008700070CE689468CE97DEC8F39923D1F3C6F39F
:10088000DF93CF931F930F93FF92C92FDD27882308
:100890002AF02197660F771F881FDAF720E030E0F3
:1008A00040E85FEB9FE3883920F0803E30F02196EE
:1008B0008F7777DDE4EBF0E003C073DDE1EEF0E08D
:1008C00073DF8B01BE01EC01FB2E6F57710975952B
:1008D000771F880B990BFCDD28E132E741E35FE3EA
:1008E0008FDEAF2D9801AE01FF900F911F91CF9138
:1008F000DF9168DD3FCEFA01DC01AA0FBB1F9B012F
:10090000AC01BF5728F422273327442750781FC053
:10091000B75188F4AB2F0024469537952795011CD5
:10092000A395D2F3002069F0220F331F441FB39523
:10093000DAF30DD035CD61307105A0E88A07B946EC
:1009400030F49B01AC016627772788279078309692
:1009500021F0208331834283538308950CD00ACE43
:1009600002DE40F0F9DD30F021F45F3F19F0EBCD0D
:10097000511134CEEECD0FDE98F39923C9F35523F0
:10098000B1F3951B550BBB27AA2762177307840782
:1009900038F09F5F5F4F220F331F441FAA1FA9F338
:1009A00033D00E2E3AF0E0E830D091505040E6952A
:1009B000001CCAF729D0FE2F27D0660F771F881F8B
:1009C000BB1F261737074807AB07B0E809F0BB0B7A
:1009D000802DBF01FF2793585F4F2AF09E3F51059E
:1009E00068F0B1CDFBCD5F3FECF3983EDCF386952C
:1009F00077956795B795F7959F5FC9F7880F911D14
:100A00009695879597F90895E1E0660F771F881FFF
:100A1000BB1F621773078407BA0720F0621B730BB2
:100A2000840BBA0BEE1F88F7E09508959F3F31F0D5
:100A3000915020F4879577956795B795880F911D0C
:100A40009695879597F9089597FB072E16F40094CD
:100A500006D077FD08D00BD007FC05D03EF490956A
:100A600081959F4F0895709561957F4F0895AA1BBA
:100A7000BB1B51E107C0AA1FBB1FA617B70710F089
:100A8000A61BB70B881F991F5A95A9F780959095BB
:100A9000BC01CD0108950F931F93CF93DF93CDB782
:100AA000DEB72E970FB6F894DEBF0FBECDBF0D890F
:100AB0001E8986E08C831A8309838FEF9FE79E83CC
:100AC0008D83AE01475E5F4F6F89788DCE010196B1
:100AD00011D02F813885F801E20FF31F10822E9676
:100AE0000FB6F894DEBF0FBECDBFDF91CF911F913F
:100AF0000F9108952F923F924F925F926F927F9243
:100B00008F929F92AF92BF92CF92DF92EF92FF921D
:100B10000F931F93CF93DF93CDB7DEB72C970FB60C
:100B2000F894DEBF0FBECDBF7C016B018A01FC01D2
:100B300017821682838181FFB0C1CE0101964C01DC
:100B4000F7019381F60193FD859193FF81916F01E8
:100B5000882309F49EC1853239F493FD859193FF72
:100B600081916F01853221F4B70190E0C7D1E8CFC0
:100B7000512C312C20E02032A0F48B3269F030F47B
:100B8000803259F0833269F420612CC08D3239F003
:100B9000803339F4216026C02260246023C028609D
:100BA00021C027FD27C030ED380F3A3078F426FFFA
:100BB00006C0FAE05F9E300D1124532E13C08AE068
:100BC000389E300D1124332E20620CC08E3221F459
:100BD00026FD5FC1206406C08C3611F4206802C077
:100BE000883641F4F60193FD859193FF81916F0161
:100BF0008111C1CF982F9F7D9554933028F40C5FBD
:100C00001F4FFFE3F9830DC0833631F0833771F056
:100C1000833509F057C021C0F801808189830E5FB8
:100C20001F4F44244394512C540114C03801F2E066
:100C30006F0E711CF801A080B18026FF03C0652DE6
:100C400070E002C06FEF7FEFC5012C874CD12C0103
:100C500083012C852F77222E16C03801F2E06F0E0B
:100C6000711CF801A080B18026FF03C0652D70E0E3
:100C700002C06FEF7FEFC5012C872AD12C012C8594
:100C80002068222E830123FC19C0832D90E0481692
:100C90005906A0F4B70180E290E030D13A94F5CF44
:100CA000F50127FC859127FE81915F01B70190E056
:100CB00025D131103A94F1E04F1A510841145104F2
:100CC00079F7DEC0843611F0893631F5F80127FF57
:100CD00007C060817181828193810C5F1F4F08C0C2
:100CE00060817181072E000C880B990B0E5F1F4FDE
:100CF0002F76722E97FF09C090958095709561951B
:100D00007F4F8F4F9F4F2068722E2AE030E0A40162
:100D10002DD1A82EA81843C0853729F42F7EB22ED6
:100D20002AE030E025C0F22FF97FBF2E8F36C1F0C8
:100D300018F4883579F0ADC0803719F0883721F084
:100D4000A8C02F2F2061B22EB4FE0DC08B2D846061
:100D5000B82E09C024FF0AC09F2F9660B92E06C086
:100D600028E030E005C020E130E002C020E132E0C0
:100D7000F801B7FE07C060817181828193810C5FA9
:100D80001F4F06C06081718180E090E00E5F1F4FB1
:100D9000A401ECD0A82EA818FB2DFF777F2E76FE9D
:100DA0000BC0372D3E7FA51450F474FE0AC072FCB0
:100DB00008C0372D3E7E05C0BA2C372D03C0BA2C93
:100DC00001C0B52C34FF0DC0FE01EA0DF11D80817C
:100DD000803311F4397E09C032FF06C0B394B39456
:100DE00004C0832F867809F0B39433FD12C030FF1E
:100DF00006C05A2CB31418F4530C5B18B32CB3145C
:100E000060F4B70180E290E03C8778D0B3943C85F1
:100E1000F6CFB31410F43B1801C0312C34FF11C0CD
:100E2000B70180E390E03C8769D03C8532FF16C073
:100E300031FD03C088E790E002C088E590E0B7018B
:100E40000CC0832F867851F031FF02C08BE201C0C5
:100E500080E237FD8DE2B70190E050D0A51430F468
:100E6000B70180E390E04AD05A94F8CFAA94F401F5
:100E7000EA0DF11D8081B70190E040D0A110F6CFBE
:100E8000332009F45DCEB70180E290E037D03A9488
:100E9000F7CFF7018681978102C08FEF9FEF2C96E5
:100EA0000FB6F894DEBF0FBECDBFDF91CF911F917B
:100EB0000F91FF90EF90DF90CF90BF90AF909F90F9
:100EC0008F907F906F905F904F903F902F900895FC
:100ED000FC010590615070400110D8F78095909505
:100EE0008E0F9F1F0895FC0161507040019001100A
:100EF000D8F7809590958E0F9F1F08950F931F939D
:100F0000CF93DF93FB01238121FD03C08FEF9FEF80
:100F100028C022FF16C0468157812481358142179F
:100F2000530744F4A081B1819D012F5F3F4F31836E
:100F300020838C93268137812F5F3F4F3783268311
:100F400010C0EB01092F182F0084F185E02D0995C1
:100F5000892BE1F68E819F8101969F838E83812F5D
:100F6000902FDF91CF911F910F910895FA01AA2739
:100F7000283051F1203181F1E8946F936E7F6E5FDC
:100F80007F4F8F4F9F4FAF4FB1E03ED0B4E03CD08A
:100F9000670F781F891F9A1FA11D680F791F8A1F6D
:100FA000911DA11D6A0F711D811D911DA11D20D0D4
:100FB00009F468943F912AE0269F11243019305D8E
:100FC0003193DEF6CF010895462F4770405D41937F
:100FD000B3E00FD0C9F7F6CF462F4F70405D4A33CC
:100FE00018F0495D31FD4052419302D0A9F7EACF94
:100FF000B4E0A6959795879577956795BA95C9F7C3
:1010000000976105710508959B01AC010A2E0694B5
:101010005795479537952795BA95C9F7620F731F6E
:0C102000841F951FA01D0895F894FFCFB9
:10102C0054656D70657261747575723A2025640033
:10103C0054656D70657261747575723A202020204C
:02104C000000A2
:00000001FF
