:1000000045C000005DC0000066C0000047C00000A1
:1000100045C000006BC0000041C000003FC00000B0
:100020003DC000003BC0000039C0000037C00000E8
:1000300035C0000033C0000031C000002FC00000F8
:100040002DC000002BC0000029C0000027C0000008
:1000500025C0000023C0000021C000001FC0000018
:100060001DC000001BC0000019C0000017C0000028
:1000700015C0000013C0000011C000000FC0000038
:100080000DC000000BC0000009C0000011241FBEFD
:10009000CFEFD0E1DEBFCDBF34D047C0B1CF18160F
:1000A00019066CF420E030E0E9EFF0E03197F1F769
:1000B00000C000002F5F3F4F28173907A9F70895A8
:1000C0001F920F920FB60F921124959A0F900FBEA8
:1000D0000F901F9018951F920F920FB60F92112438
:1000E00095980F900FBE0F901F9018951F920F922A
:1000F0000FB60F92112495980F900FBE0F901F907E
:10010000189580EF81BBEAE6F0E080818B6C8083FC
:1001100089B78B6089BF80E88FBF789482B380589D
:0E01200082BB84EF91E0BBDFF9CFF894FFCFF4
:00000001FF
