:1000000045C0000053C0000051C000004FC00000B8
:100010004DC000004BC0000049C0000047C00000B8
:1000200045C0000043C0000041C000003FC00000C8
:100030003DC000003BC0000039C0000037C00000D8
:1000400035C0000033C0000031C000002FC00000E8
:100050002DC000002BC0000029C0000027C00000F8
:1000600025C0000023C0000021C000001FC0000008
:100070001DC000001BC0000019C0000017C0000018
:1000800015C0000013C0000011C0000011241FBEE5
:10009000CFEFD0E1DEBFCDBF21E0A0E0B1E001C0F5
:1000A0001D92A030B207E1F79DD0BBC0A9CF1816B2
:1000B00019066CF420E030E0E9EFF0E03197F1F759
:1000C00000C000002F5F3F4F28173907A9F7089598
:1000D0008FEF90E09BBD8ABD99BD88BD909379005C
:1000E0008093780089EA8FBD8BE08EBD0895CF9311
:1000F000DF93CFEFD0E0CE01992799BD88BD8AEF7D
:1001000090E0D5DF2297CF3F8FEFD807A1F7C0E06F
:10011000D0E0CE01992799BD88BD84EF91E0C7DF7B
:100120002296C11581E0D807A1F78FEF90E099BD25
:1001300088BDDF91CF9108950F931F93CF93DF93E5
:10014000CFEFD0E008E710E0CE019927F8019183C6
:1001500080838AEF90E0ABDF2297CF3FFFEFDF078E
:1001600099F7C0E0D0E008E710E0CE019927F80148
:100170009183808384EF91E09ADF2296C115F1E0AC
:10018000DF0799F78FEF90E09093790080937800E4
:10019000DF91CF911F910F910895CF93DF93CFEF10
:1001A000D0E0CE0199279BBD8ABD8AEF90E07FDF2A
:1001B0002297CF3F8FEFD807A1F7C0E0D0E0CE0164
:1001C00099279BBD8ABD84EF91E071DF2296C1150E
:1001D00081E0D807A1F78FEF90E09BBD8ABDDF914A
:1001E000CF9108958FEF87BB73DF84E690E05FDFE8
:1001F000CFEFD0E008E710E0D9BDC8BDDBBDCABD78
:10020000F801D183C08373DF97DFC7DFD9BDC8BDD5
:10021000DBBDCABDF801D183C08384E690E047DF2F
:06022000EBCFF894FFCFC4
:00000001FF
