:1000000045C0000058C0000056C0000054C00000A9
:1000100052C0000050C000004EC000004CC00000A4
:100020004AC0000048C0000046C0000044C00000B4
:1000300042C0000040C000003EC000003CC00000C4
:100040003AC0000038C0000036C0000034C00000D4
:1000500032C0000030C000002EC000002CC00000E4
:100060002AC0000028C0000026C0000024C00000F4
:1000700022C0000020C000001EC000001CC0000004
:100080001AC0000018C0000016C0000011241FBED6
:10009000CFEFD0E1DEBFCDBF11E0A0E0B1E0ECEAF0
:1000A000F1E000E00BBF02C007900D92AE30B10747
:1000B000D9F772D079C0A4CF982F907F95BBAB9A17
:1000C000E9EFF0E03197F1F700C0000094E095BB54
:1000D000F0E18F9FC001112485BBAB9A89EF90E0BE
:1000E0000197F1F700C0000015BA08958FEF84BBA7
:1000F00082E0E2DF88E2E0DF8CE0DEDF86E0DCDF6A
:1001000080E8DACF0895CF93DF93DC01EC0140E083
:1001100050E064E01FC02991822F807F85BB95B39A
:100120009C6095BB89EF90E00197F1F700C000005B
:1001300065BB90E1299F9001112425BB95B39C607C
:1001400095BB89EF90E00197F1F700C0000015BA68
:100150004F5F5F4FFD0101900020E9F73197EA1BE7
:10016000FB0B4E175F07B8F2DF91CF9108950F9305
:100170001F93CF93DF93181619064CF48C01C0E03F
:10018000D0E084E199DF2196C017D107D1F7DF9144
:10019000CF911F910F910895A9DF82E090E0E7DFF2
:0C01A00080E091E0B0DFFFCFF894FFCFCB
:0E01AC005061756C34507265736964650000B3
:00000001FF
